:020000040800F2
:10000000005000206D0D0008F50C0008F90C0008E8
:10001000FD0C0008010D0008050D0008000000009F
:10002000000000000000000000000000090D0008B2
:100030000D0D000800000000110D0008150D00084E
:10004000B50D0008B50D0008B50D0008B50D000888
:10005000B50D0008B50D0008B50D0008B50D000878
:10006000B50D0008B50D0008B50D0008B50D000868
:10007000B50D0008B50D0008B50D0008B50D000858
:10008000B50D0008B50D0008B50D0008B50D000848
:10009000B50D0008B50D0008B50D0008B50D000838
:1000A000B50D0008B50D0008B50D0008B50D000828
:1000B000B50D0008B50D0008B50D0008B50D000818
:1000C000B50D0008B50D0008B50D0008B50D000808
:1000D000B50D0008B50D0008B50D0008B50D0008F8
:1000E000B50D0008B50D0008B50D000800000000B2
:1000F0000000000000000000000000000000000000
:0C01000000000000000000005FF808F1A3
:10010C00044B05481B1A062B02D9044B03B11847A4
:10011C00704700BF07000020040000200000000012
:10012C0005490648091A891001EBD171491002D012
:10013C00034B03B118477047040000200400002053
:10014C000000000010B5064C237843B9FFF7D8FF28
:10015C00044B13B10448AFF300800123237010BD8E
:10016C000400002000000000B80D000808B5084B82
:10017C001BB108490848AFF300800848036813B95D
:10018C00BDE80840CCE7064B002BF9D09847F7E7C1
:10019C000000000008000020B80D0008040000203A
:1001AC000000000070B50F4E0F4D761BB61018BF37
:1001BC00002405D0013455F8043B9847A642F9D1E8
:1001CC000A4E0B4D00F0F2FD761BB61018BF002442
:1001DC0006D0013455F8043B9847A642F9D170BDBE
:1001EC0070BD00BF000E0008000E0008040E0008D1
:1001FC00000E000810B50446074B1B680748A0FB0F
:10020C000330800900F070F8002221464FF0FF30D7
:10021C0000F038F8002010BD00000020D34D621013
:10022C0008B5074A136843F010031360032000F06D
:10023C0017F80020FFF7DEFF00F00CFD002008BDD2
:10024C0000200240024A136801331360704700BF5C
:10025C0020000020014B1868704700BF20000020D0
:10026C00074AD36823F4E0631B041B0C000200F460
:10027C00E060184340F0BF6040F40030D06070473D
:10028C0000ED00E030B4164BDB68C3F30223C3F17E
:10029C000704042C28BF04241D1D062D01D9DD1EC6
:1002AC0000E00025012303FA04F4013C2140A9409D
:1002BC00AB40013B1A400A43002806DA00F00F005D
:1002CC001201D2B2074B1A5407E01201D2B200F15C
:1002DC00604000F5614080F8002330BC704700BFDF
:1002EC0000ED00E014ED00E00138B0F1807F0AD29F
:1002FC00064B5860F021064A82F8231000209860C3
:10030C0007221A6070470120704700BF10E000E020
:10031C0000ED00E0042805D1054A136843F00403FE
:10032C0013607047024A136823F00403136070478C
:10033C0010E000E0704700BF08B5FFF7FBFF08BDF9
:10034C00F0B583B000263446D5E00122A2400B68FC
:10035C0013409A4240F0CE804D68122D2DD00BD810
:10036C00022D27D003D85DB3012D1ED035E0032D0F
:10037C0030D0112D1BD030E0614FBD4220D008D8B9
:10038C00A7F58017BD421BD007F58037BD4224D19D
:10039C0016E05C4FBD4213D007F58037BD420FD03D
:1003AC00A7F58017BD4218D10AE0CE6815E0CE68DB
:1003BC00043612E0CE6808360FE0CE680C360CE03E
:1003CC008D684DB1012D02D10261082605E0426114
:1003DC00082602E0002600E00426FF2B01D8864602
:1003EC0001E000F1040EFF2B01D8A20002E0A4F101
:1003FC0008029200DEF800700F25954027EA0505EB
:10040C0006FA02F22A43CEF800204A6812F0805F06
:10041C0070D03D4A956945F001059561926902F0ED
:10042C0001020192019AA708BD1C384A52F82550C6
:10043C0004F0030292004FF00F0E0EFA02FE25EAB2
:10044C000E0E334DA8420DD005F58065A8420BD099
:10045C0005F58065A84209D005F58065A84207D14D
:10046C00032506E0002504E0012502E0022500E05A
:10047C00042505FA02F24EEA02020237234D45F832
:10048C0027204A6812F4803F05D005F580652A685C
:10049C001A432A6004E01F4D2A6822EA03022A60EC
:1004AC004A6812F4003F04D01A4D6A681A436A6015
:1004BC0004E0184D6A6822EA03026A604A6812F482
:1004CC00801F04D0134DAA681A43AA6004E0114D92
:1004DC00AA6822EA0302AA604A6812F4001F04D038
:1004EC000C4DEA681343EB6004E00A4DEA6822EA1B
:1004FC000303EB6001340F2C7FF627AF03B0F0BD84
:10050C0000002110000031100010024000000140DA
:10051C0000080140000401400AB101617047090460
:10052C000161704782B0084B1B68084AA2FB032389
:10053C005B0A00FB03F0019000BF019B5A1E019265
:10054C00002BF9D102B0704700000020D34D62108F
:10055C0070B582B00446036813F0010F6BD0A84B42
:10056C005B6803F00C03042B0AD0A54B5B6803F00B
:10057C000C03082B0DD1A24B5B6813F4803F08D001
:10058C009F4B1B6813F4003F55D06368002B52D16E
:10059C00B8E16368B3F5803F05D1994A136843F419
:1005AC008033136026E063B903F1804303F5043311
:1005BC001A6822F480321A601A6822F480221A60B7
:1005CC0018E0B3F5A02F0CD103F18043A3F53C3315
:1005DC001A6842F480221A601A6842F480321A6057
:1005EC0008E0874B1A6822F480321A601A6822F4E9
:1005FC0080221A6063687BB1FFF72CFE054605E08C
:10060C00FFF728FE401B642800F27E817C4B1B68A0
:10061C0013F4003FF4D00EE0FFF71CFE054605E096
:10062C00FFF718FE401B642800F27081744B1B68A6
:10063C0013F4003FF4D1236813F0020F50D0704B29
:10064C005B6813F00C0F0AD06D4B5B6803F00C0366
:10065C00082B16D16A4B5B6813F4803F11D1684BA1
:10066C001B6813F0020F03D02369012B40F050815B
:10067C00634A136823F0F803616943EAC10313600A
:10068C002EE02369D3B101225E4B1A60FFF7E2FD25
:10069C00054605E0FFF7DEFD401B022800F23A811B
:1006AC00574B1B6813F0020FF4D0554A136823F014
:1006BC00F803616943EAC103136011E00022514B56
:1006CC001A60FFF7C7FD054605E0FFF7C3FD401BA9
:1006DC00022800F221814A4B1B6813F0020FF4D15F
:1006EC00236813F0080F29D0A369ABB10122464B44
:1006FC001A60FFF7AFFD054605E0FFF7ABFD401BA9
:10070C00022800F20B813E4B5B6A13F0020FF4D00F
:10071C000120FFF707FF11E000223B4B1A60FFF7A7
:10072C0099FD054605E0FFF795FD401B022800F2F8
:10073C00F780334B5B6A13F0020FF4D1236813F08C
:10074C00040F00F089802E4BDB6913F0805F0BD116
:10075C002B4BDA6942F08052DA61DB6903F080538B
:10076C000193019B012500E00025284B1B6813F425
:10077C00807F13D1254A136843F480731360FFF70D
:10078C0069FD064605E0FFF765FD801B642800F255
:10079C00C9801E4B1B6813F4807FF4D0E368012BD7
:1007AC0005D1174A136A43F00103136222E063B9BF
:1007BC0003F1804303F504331A6A22F001021A6232
:1007CC001A6A22F004021A6214E0052B09D10C4BB0
:1007DC001A6A42F004021A621A6A42F001021A62A0
:1007EC0008E0074B1A6A22F001021A621A6A22F018
:1007FC0004021A62E368CBB1FFF72CFD06460FE04A
:10080C00001002400000424280044242007000404E
:10081C00FFF720FD801B41F28833984200F2848060
:10082C00494B1B6A13F0020FF2D00FE0FFF712FDD9
:10083C00064606E0FFF70EFD801B41F28833984216
:10084C0074D8414B1B6A13F0020FF3D125B13E4A09
:10085C00D36923F08053D361E369002B68D03A4A03
:10086C00526802F00C02082A64D0022B37D1002205
:10087C00364B1A60FFF7EEFC054604E0FFF7EAFC86
:10088C00401B022858D8304B1B6813F0007FF5D161
:10089C00236AB3F5803F06D12B494B6823F4003211
:1008AC00A36813434B602848436823F47411236AEC
:1008BC00626A13430B4343600122244B1A60FFF717
:1008CC00C9FC044604E0FFF7C5FC001B022835D820
:1008DC001D4B1B6813F0007FF5D0002031E0002287
:1008EC001A4B1A60FFF7B6FC044604E0FFF7B2FCA3
:1008FC00001B022824D8144B1B6813F0007FF5D181
:10090C0000201EE001201CE003201AE0032018E068
:10091C00012016E0032014E0032012E0032010E075
:10092C0003200EE003200CE003200AE0032008E083
:10093C00002006E0012004E0032002E0032000E098
:10094C00032002B070BD00BF0010024060004242A4
:10095C0030B486B0164D02AC28686968AA68EB689A
:10096C000FC42B8AADF80430124B5B6803F00C02F9
:10097C00082A19D1C3F3834206A90A4412F8102C91
:10098C0013F4803F0CD00B4B5B68C3F340430B4418
:10099C0013F8140C084BB3FBF0F000FB02F004E06E
:1009AC00064800FB02F000E0034806B030BC70477C
:1009BC00D00D00080010024000127A0000093D0022
:1009CC0070B55C4B1B6803F007038B420BD2594A82
:1009DC00136823F007030B431360136803F007033A
:1009EC00994240F09780036813F0020F06D0524CE6
:1009FC00636823F0F0028368134363600D4604467A
:100A0C00036813F0010F4DD04268012A05D14A4BFF
:100A1C001B6813F4003F0DD17EE0022A05D1464B32
:100A2C001B6813F0007F05D178E0434B1B6813F073
:100A3C00020F75D040494B6823F0030313434B60FE
:100A4C00FFF708FC06466368012B0ED106E0FFF7A2
:100A5C0001FC801B41F28833984263D8364B5B68AB
:100A6C0003F00C03042BF2D11CE0022B15D106E091
:100A7C00FFF7F0FB801B41F28833984254D82E4B81
:100A8C005B6803F00C03082BF2D10BE0FFF7E2FBE1
:100A9C00801B41F28833984248D8274B5B6813F08F
:100AAC000C0FF3D1234B1B6803F007039D420AD2B2
:100ABC00204A136823F007032B431360136803F0D9
:100ACC0007039D4234D1236813F0040F06D01A4952
:100ADC004B6823F4E062E36813434B60236813F024
:100AEC00080F07D0144A536823F46053216943EA72
:100AFC00C1035360FFF72CFF0F4B5B68C3F3031369
:100B0C000E4AD35CD8400E4B18600020FFF772FBE6
:100B1C00002070BD012070BD012070BD012070BD92
:100B2C00012070BD032070BD032070BD032070BD7B
:100B3C00012070BD0020024000100240F00D0008A2
:100B4C0000000020014B1868704700BF0000002017
:100B5C0010B588B0174B9A6942F010029A619A69E5
:100B6C0002F010020192019A9A6942F020029A61F5
:100B7C009A6902F020020292029A9A6942F00402E7
:100B8C009A619B6903F004030393039B0A4C0022B4
:100B9C004FF400512046FFF7BFFC4FF40053049371
:100BAC00012305930223079304A92046FFF7C8FBF2
:100BBC0008B010BD0010024000100140FEE700BF5D
:100BCC0000B591B0012206924FF4803307930021B7
:100BDC0008910A9202220D920E934FF4E0130F9398
:100BEC0006A8FFF7B5FC18B186211448FFF7E6FFFD
:100BFC000F23019302210291002303934FF480628F
:100C0C000492059301A8FFF7DBFE18B194210B4861
:100C1C00FFF7D4FFFFF796FF094BA3FB00308009C9
:100C2C00FFF762FB0420FFF775FB002211464FF023
:100C3C00FF30FFF727FB11B05DF804FBE40D000853
:100C4C00D34D621008B5FFF7EBFAFFF7B9FFFFF7CA
:100C5C007FFFFEE700B583B0214B9A6942F0010299
:100C6C009A619B6903F001030193019B0320FFF739
:100C7C00F7FA002211466FF00B00FFF703FB00227E
:100C8C0011466FF00A00FFF7FDFA002211466FF0D3
:100C9C000900FFF7F7FA002211466FF00400FFF786
:100CAC00F1FA002211466FF00300FFF7EBFA002275
:100CBC0011466FF00100FFF7E5FA002211464FF0E4
:100CCC00FF30FFF7DFFA074B5A6822F0E0625A60F8
:100CDC005A6842F000725A6003B05DF804FB00BF22
:100CEC000010024000000140704700BFFEE700BF4B
:100CFC00FEE700BFFEE700BFFEE700BF704700BF86
:100D0C00704700BF704700BF08B5FFF79BFAFFF7AD
:100D1C0013FB08BD0F4B1A6842F001021A605968A8
:100D2C000D4A0A405A601A6822F0847222F480320A
:100D3C001A601A6822F480221A605A6822F4FE02A1
:100D4C005A604FF41F029A604FF00062034B9A6096
:100D5C00704700BF001002400000FFF800ED00E0FB
:100D6C00002103E00B4B5B58435004310A480B4BFA
:100D7C0042189A42F6D30A4A02E0002342F8043B96
:100D8C00084B9A42F9D3FFF7C5FFFFF70BFAFFF7B1
:100D9C0059FF7047080E00080000002004000020D6
:100DAC000400002024000020FEE70000F8B500BF7E
:100DBC00F8BC08BC9E467047F8B500BFF8BC08BC30
:040DCC009E46704788
:100DD00002030405060708090A0B0C0D0E0F10107C
:100DE000010200005372632F6D61696E2E63000073
:100DF00000000000000000000102030406070809CB
:040E0000790100086C
:040E04005101000890
:040E080000A24A04F6
:0400000508000D6D75
:00000001FF
